{
  "_format": "hh-sol-artifact-1",
  "contractName": "CarbonCreditMarketplace",
  "sourceName": "contracts/CarbonCreditMarketplace.sol",
  "abi": [
    {
      "inputs": [
        {
          "internalType": "address",
          "name": "initialOwner",
          "type": "address"
        },
        {
          "internalType": "address",
          "name": "carbonCreditTokenAddress",
          "type": "address"
        }
      ],
      "stateMutability": "nonpayable",
      "type": "constructor"
    },
    {
      "inputs": [
        {
          "internalType": "address",
          "name": "owner",
          "type": "address"
        }
      ],
      "name": "OwnableInvalidOwner",
      "type": "error"
    },
    {
      "inputs": [
        {
          "internalType": "address",
          "name": "account",
          "type": "address"
        }
      ],
      "name": "OwnableUnauthorizedAccount",
      "type": "error"
    },
    {
      "inputs": [],
      "name": "ReentrancyGuardReentrantCall",
      "type": "error"
    },
    {
      "anonymous": false,
      "inputs": [
        {
          "indexed": true,
          "internalType": "uint256",
          "name": "tokenId",
          "type": "uint256"
        },
        {
          "indexed": true,
          "internalType": "address",
          "name": "seller",
          "type": "address"
        },
        {
          "indexed": false,
          "internalType": "uint256",
          "name": "price",
          "type": "uint256"
        }
      ],
      "name": "CreditListed",
      "type": "event"
    },
    {
      "anonymous": false,
      "inputs": [
        {
          "indexed": true,
          "internalType": "uint256",
          "name": "tokenId",
          "type": "uint256"
        },
        {
          "indexed": true,
          "internalType": "address",
          "name": "seller",
          "type": "address"
        },
        {
          "indexed": true,
          "internalType": "address",
          "name": "buyer",
          "type": "address"
        },
        {
          "indexed": false,
          "internalType": "uint256",
          "name": "price",
          "type": "uint256"
        }
      ],
      "name": "CreditSold",
      "type": "event"
    },
    {
      "anonymous": false,
      "inputs": [
        {
          "indexed": true,
          "internalType": "uint256",
          "name": "tokenId",
          "type": "uint256"
        },
        {
          "indexed": true,
          "internalType": "address",
          "name": "seller",
          "type": "address"
        }
      ],
      "name": "ListingCancelled",
      "type": "event"
    },
    {
      "anonymous": false,
      "inputs": [
        {
          "indexed": true,
          "internalType": "address",
          "name": "previousOwner",
          "type": "address"
        },
        {
          "indexed": true,
          "internalType": "address",
          "name": "newOwner",
          "type": "address"
        }
      ],
      "name": "OwnershipTransferred",
      "type": "event"
    },
    {
      "inputs": [
        {
          "internalType": "uint256",
          "name": "tokenId",
          "type": "uint256"
        }
      ],
      "name": "buyCredit",
      "outputs": [],
      "stateMutability": "payable",
      "type": "function"
    },
    {
      "inputs": [
        {
          "internalType": "uint256",
          "name": "tokenId",
          "type": "uint256"
        }
      ],
      "name": "cancelListing",
      "outputs": [],
      "stateMutability": "nonpayable",
      "type": "function"
    },
    {
      "inputs": [],
      "name": "carbonCreditToken",
      "outputs": [
        {
          "internalType": "contract IERC721",
          "name": "",
          "type": "address"
        }
      ],
      "stateMutability": "view",
      "type": "function"
    },
    {
      "inputs": [
        {
          "internalType": "uint256",
          "name": "tokenId",
          "type": "uint256"
        },
        {
          "internalType": "uint256",
          "name": "price",
          "type": "uint256"
        }
      ],
      "name": "listCredit",
      "outputs": [],
      "stateMutability": "nonpayable",
      "type": "function"
    },
    {
      "inputs": [
        {
          "internalType": "uint256",
          "name": "",
          "type": "uint256"
        }
      ],
      "name": "listings",
      "outputs": [
        {
          "internalType": "address",
          "name": "seller",
          "type": "address"
        },
        {
          "internalType": "uint256",
          "name": "price",
          "type": "uint256"
        },
        {
          "internalType": "bool",
          "name": "active",
          "type": "bool"
        }
      ],
      "stateMutability": "view",
      "type": "function"
    },
    {
      "inputs": [],
      "name": "owner",
      "outputs": [
        {
          "internalType": "address",
          "name": "",
          "type": "address"
        }
      ],
      "stateMutability": "view",
      "type": "function"
    },
    {
      "inputs": [],
      "name": "renounceOwnership",
      "outputs": [],
      "stateMutability": "nonpayable",
      "type": "function"
    },
    {
      "inputs": [
        {
          "internalType": "address",
          "name": "newOwner",
          "type": "address"
        }
      ],
      "name": "transferOwnership",
      "outputs": [],
      "stateMutability": "nonpayable",
      "type": "function"
    }
  ],
  "bytecode": "0x60806040523480156200001157600080fd5b5060405162001474380380620014748339818101604052810190620000379190620002a3565b816001600081905550600073ffffffffffffffffffffffffffffffffffffffff168173ffffffffffffffffffffffffffffffffffffffff1603620000b55760006040517f1e4fbdf7000000000000000000000000000000000000000000000000000000008152600401620000ac9190620002fb565b60405180910390fd5b620000c6816200017360201b60201c565b5080600360006101000a81548173ffffffffffffffffffffffffffffffffffffffff021916908373ffffffffffffffffffffffffffffffffffffffff160217905550600360009054906101000a900473ffffffffffffffffffffffffffffffffffffffff16600260006101000a81548173ffffffffffffffffffffffffffffffffffffffff021916908373ffffffffffffffffffffffffffffffffffffffff160217905550505062000318565b6000600160009054906101000a900473ffffffffffffffffffffffffffffffffffffffff16905081600160006101000a81548173ffffffffffffffffffffffffffffffffffffffff021916908373ffffffffffffffffffffffffffffffffffffffff1602179055508173ffffffffffffffffffffffffffffffffffffffff168173ffffffffffffffffffffffffffffffffffffffff167f8be0079c531659141344cd1fd0a4f28419497f9722a3daafe3b4186f6b6457e060405160405180910390a35050565b600080fd5b600073ffffffffffffffffffffffffffffffffffffffff82169050919050565b60006200026b826200023e565b9050919050565b6200027d816200025e565b81146200028957600080fd5b50565b6000815190506200029d8162000272565b92915050565b60008060408385031215620002bd57620002bc62000239565b5b6000620002cd858286016200028c565b9250506020620002e0858286016200028c565b9150509250929050565b620002f5816200025e565b82525050565b6000602082019050620003126000830184620002ea565b92915050565b61114c80620003286000396000f3fe60806040526004361061007b5760003560e01c80637211dde41161004e5780637211dde4146101145780638da5cb5b14610130578063de74e57b1461015b578063f2fde38b1461019a5761007b565b8063305a67a8146100805780634fbf3929146100a957806366dea358146100d2578063715018a6146100fd575b600080fd5b34801561008c57600080fd5b506100a760048036038101906100a29190610bf5565b6101c3565b005b3480156100b557600080fd5b506100d060048036038101906100cb9190610c22565b610307565b005b3480156100de57600080fd5b506100e7610627565b6040516100f49190610ce1565b60405180910390f35b34801561010957600080fd5b5061011261064d565b005b61012e60048036038101906101299190610bf5565b610661565b005b34801561013c57600080fd5b5061014561090e565b6040516101529190610d1d565b60405180910390f35b34801561016757600080fd5b50610182600480360381019061017d9190610bf5565b610938565b60405161019193929190610d62565b60405180910390f35b3480156101a657600080fd5b506101c160048036038101906101bc9190610dc5565b61098f565b005b3373ffffffffffffffffffffffffffffffffffffffff166004600083815260200190815260200160002060000160009054906101000a900473ffffffffffffffffffffffffffffffffffffffff1673ffffffffffffffffffffffffffffffffffffffff1614610267576040517f08c379a000000000000000000000000000000000000000000000000000000000815260040161025e90610e4f565b60405180910390fd5b60046000828152602001908152602001600020600080820160006101000a81549073ffffffffffffffffffffffffffffffffffffffff021916905560018201600090556002820160006101000a81549060ff021916905550503373ffffffffffffffffffffffffffffffffffffffff16817f8e25282255ab31897df2b0456bb993ac7f84d376861aefd84901d2d63a7428a260405160405180910390a350565b3373ffffffffffffffffffffffffffffffffffffffff16600260009054906101000a900473ffffffffffffffffffffffffffffffffffffffff1673ffffffffffffffffffffffffffffffffffffffff16636352211e846040518263ffffffff1660e01b81526004016103799190610e6f565b602060405180830381865afa158015610396573d6000803e3d6000fd5b505050506040513d601f19601f820116820180604052508101906103ba9190610e9f565b73ffffffffffffffffffffffffffffffffffffffff1614610410576040517f08c379a000000000000000000000000000000000000000000000000000000000815260040161040790610f18565b60405180910390fd5b3073ffffffffffffffffffffffffffffffffffffffff16600260009054906101000a900473ffffffffffffffffffffffffffffffffffffffff1673ffffffffffffffffffffffffffffffffffffffff1663081812fc846040518263ffffffff1660e01b81526004016104829190610e6f565b602060405180830381865afa15801561049f573d6000803e3d6000fd5b505050506040513d601f19601f820116820180604052508101906104c39190610e9f565b73ffffffffffffffffffffffffffffffffffffffff1614610519576040517f08c379a000000000000000000000000000000000000000000000000000000000815260040161051090610f84565b60405180910390fd5b60405180606001604052803373ffffffffffffffffffffffffffffffffffffffff168152602001828152602001600115158152506004600084815260200190815260200160002060008201518160000160006101000a81548173ffffffffffffffffffffffffffffffffffffffff021916908373ffffffffffffffffffffffffffffffffffffffff1602179055506020820151816001015560408201518160020160006101000a81548160ff0219169083151502179055509050503373ffffffffffffffffffffffffffffffffffffffff16827f4ac0e51fccbcff90e2efa701b77c9cccff85e9345e1d32c94e7e785993b195c48360405161061b9190610e6f565b60405180910390a35050565b600260009054906101000a900473ffffffffffffffffffffffffffffffffffffffff1681565b610655610a15565b61065f6000610a9c565b565b610669610b62565b60006004600083815260200190815260200160002090508060020160009054906101000a900460ff166106d1576040517f08c379a00000000000000000000000000000000000000000000000000000000081526004016106c890610ff0565b60405180910390fd5b8060010154341015610718576040517f08c379a000000000000000000000000000000000000000000000000000000000815260040161070f9061105c565b60405180910390fd5b60008160000160009054906101000a900473ffffffffffffffffffffffffffffffffffffffff16905060008260010154905060008360020160006101000a81548160ff021916908315150217905550600260009054906101000a900473ffffffffffffffffffffffffffffffffffffffff1673ffffffffffffffffffffffffffffffffffffffff166342842e0e8333876040518463ffffffff1660e01b81526004016107c69392919061107c565b600060405180830381600087803b1580156107e057600080fd5b505af11580156107f4573d6000803e3d6000fd5b505050508173ffffffffffffffffffffffffffffffffffffffff166108fc829081150290604051600060405180830381858888f1935050505015801561083e573d6000803e3d6000fd5b503373ffffffffffffffffffffffffffffffffffffffff168273ffffffffffffffffffffffffffffffffffffffff16857f7e47a1e6c94fa983ca28d7705e8a571d166221513a37da6b741dd937d16dfb118460405161089d9190610e6f565b60405180910390a480341115610900573373ffffffffffffffffffffffffffffffffffffffff166108fc82346108d391906110e2565b9081150290604051600060405180830381858888f193505050501580156108fe573d6000803e3d6000fd5b505b50505061090b610ba8565b50565b6000600160009054906101000a900473ffffffffffffffffffffffffffffffffffffffff16905090565b60046020528060005260406000206000915090508060000160009054906101000a900473ffffffffffffffffffffffffffffffffffffffff16908060010154908060020160009054906101000a900460ff16905083565b610997610a15565b600073ffffffffffffffffffffffffffffffffffffffff168173ffffffffffffffffffffffffffffffffffffffff1603610a095760006040517f1e4fbdf7000000000000000000000000000000000000000000000000000000008152600401610a009190610d1d565b60405180910390fd5b610a1281610a9c565b50565b610a1d610bb2565b73ffffffffffffffffffffffffffffffffffffffff16610a3b61090e565b73ffffffffffffffffffffffffffffffffffffffff1614610a9a57610a5e610bb2565b6040517f118cdaa7000000000000000000000000000000000000000000000000000000008152600401610a919190610d1d565b60405180910390fd5b565b6000600160009054906101000a900473ffffffffffffffffffffffffffffffffffffffff16905081600160006101000a81548173ffffffffffffffffffffffffffffffffffffffff021916908373ffffffffffffffffffffffffffffffffffffffff1602179055508173ffffffffffffffffffffffffffffffffffffffff168173ffffffffffffffffffffffffffffffffffffffff167f8be0079c531659141344cd1fd0a4f28419497f9722a3daafe3b4186f6b6457e060405160405180910390a35050565b600260005403610b9e576040517f3ee5aeb500000000000000000000000000000000000000000000000000000000815260040160405180910390fd5b6002600081905550565b6001600081905550565b600033905090565b600080fd5b6000819050919050565b610bd281610bbf565b8114610bdd57600080fd5b50565b600081359050610bef81610bc9565b92915050565b600060208284031215610c0b57610c0a610bba565b5b6000610c1984828501610be0565b91505092915050565b60008060408385031215610c3957610c38610bba565b5b6000610c4785828601610be0565b9250506020610c5885828601610be0565b9150509250929050565b600073ffffffffffffffffffffffffffffffffffffffff82169050919050565b6000819050919050565b6000610ca7610ca2610c9d84610c62565b610c82565b610c62565b9050919050565b6000610cb982610c8c565b9050919050565b6000610ccb82610cae565b9050919050565b610cdb81610cc0565b82525050565b6000602082019050610cf66000830184610cd2565b92915050565b6000610d0782610c62565b9050919050565b610d1781610cfc565b82525050565b6000602082019050610d326000830184610d0e565b92915050565b610d4181610bbf565b82525050565b60008115159050919050565b610d5c81610d47565b82525050565b6000606082019050610d776000830186610d0e565b610d846020830185610d38565b610d916040830184610d53565b949350505050565b610da281610cfc565b8114610dad57600080fd5b50565b600081359050610dbf81610d99565b92915050565b600060208284031215610ddb57610dda610bba565b5b6000610de984828501610db0565b91505092915050565b600082825260208201905092915050565b7f4e6f74207468652073656c6c6572000000000000000000000000000000000000600082015250565b6000610e39600e83610df2565b9150610e4482610e03565b602082019050919050565b60006020820190508181036000830152610e6881610e2c565b9050919050565b6000602082019050610e846000830184610d38565b92915050565b600081519050610e9981610d99565b92915050565b600060208284031215610eb557610eb4610bba565b5b6000610ec384828501610e8a565b91505092915050565b7f4e6f7420746865206f776e657200000000000000000000000000000000000000600082015250565b6000610f02600d83610df2565b9150610f0d82610ecc565b602082019050919050565b60006020820190508181036000830152610f3181610ef5565b9050919050565b7f4d61726b6574706c616365206e6f7420617070726f7665640000000000000000600082015250565b6000610f6e601883610df2565b9150610f7982610f38565b602082019050919050565b60006020820190508181036000830152610f9d81610f61565b9050919050565b7f4c697374696e67206e6f74206163746976650000000000000000000000000000600082015250565b6000610fda601283610df2565b9150610fe582610fa4565b602082019050919050565b6000602082019050818103600083015261100981610fcd565b9050919050565b7f496e73756666696369656e74207061796d656e74000000000000000000000000600082015250565b6000611046601483610df2565b915061105182611010565b602082019050919050565b6000602082019050818103600083015261107581611039565b9050919050565b60006060820190506110916000830186610d0e565b61109e6020830185610d0e565b6110ab6040830184610d38565b949350505050565b7f4e487b7100000000000000000000000000000000000000000000000000000000600052601160045260246000fd5b60006110ed82610bbf565b91506110f883610bbf565b92508282039050818111156111105761110f6110b3565b5b9291505056fea2646970667358221220cbc7d5d94b6e76be446be5f50660a568e3da606d31556f5a9d2265b931e892e864736f6c63430008140033",
  "linkReferences": {},
  "deployedLinkReferences": {}
}