{
  "_format": "hh-sol-artifact-1",
  "contractName": "UserRewards",
  "sourceName": "contracts/UserRewards.sol",
  "abi": [
    {
      "inputs": [
        {
          "internalType": "address",
          "name": "initialOwner",
          "type": "address"
        }
      ],
      "stateMutability": "nonpayable",
      "type": "constructor"
    },
    {
      "inputs": [
        {
          "internalType": "address",
          "name": "spender",
          "type": "address"
        },
        {
          "internalType": "uint256",
          "name": "allowance",
          "type": "uint256"
        },
        {
          "internalType": "uint256",
          "name": "needed",
          "type": "uint256"
        }
      ],
      "name": "ERC20InsufficientAllowance",
      "type": "error"
    },
    {
      "inputs": [
        {
          "internalType": "address",
          "name": "sender",
          "type": "address"
        },
        {
          "internalType": "uint256",
          "name": "balance",
          "type": "uint256"
        },
        {
          "internalType": "uint256",
          "name": "needed",
          "type": "uint256"
        }
      ],
      "name": "ERC20InsufficientBalance",
      "type": "error"
    },
    {
      "inputs": [
        {
          "internalType": "address",
          "name": "approver",
          "type": "address"
        }
      ],
      "name": "ERC20InvalidApprover",
      "type": "error"
    },
    {
      "inputs": [
        {
          "internalType": "address",
          "name": "receiver",
          "type": "address"
        }
      ],
      "name": "ERC20InvalidReceiver",
      "type": "error"
    },
    {
      "inputs": [
        {
          "internalType": "address",
          "name": "sender",
          "type": "address"
        }
      ],
      "name": "ERC20InvalidSender",
      "type": "error"
    },
    {
      "inputs": [
        {
          "internalType": "address",
          "name": "spender",
          "type": "address"
        }
      ],
      "name": "ERC20InvalidSpender",
      "type": "error"
    },
    {
      "inputs": [
        {
          "internalType": "address",
          "name": "owner",
          "type": "address"
        }
      ],
      "name": "OwnableInvalidOwner",
      "type": "error"
    },
    {
      "inputs": [
        {
          "internalType": "address",
          "name": "account",
          "type": "address"
        }
      ],
      "name": "OwnableUnauthorizedAccount",
      "type": "error"
    },
    {
      "inputs": [],
      "name": "ReentrancyGuardReentrantCall",
      "type": "error"
    },
    {
      "anonymous": false,
      "inputs": [
        {
          "indexed": true,
          "internalType": "address",
          "name": "owner",
          "type": "address"
        },
        {
          "indexed": true,
          "internalType": "address",
          "name": "spender",
          "type": "address"
        },
        {
          "indexed": false,
          "internalType": "uint256",
          "name": "value",
          "type": "uint256"
        }
      ],
      "name": "Approval",
      "type": "event"
    },
    {
      "anonymous": false,
      "inputs": [
        {
          "indexed": true,
          "internalType": "address",
          "name": "user",
          "type": "address"
        },
        {
          "indexed": false,
          "internalType": "uint256",
          "name": "amountTons",
          "type": "uint256"
        }
      ],
      "name": "CO2ReductionReported",
      "type": "event"
    },
    {
      "anonymous": false,
      "inputs": [
        {
          "indexed": true,
          "internalType": "address",
          "name": "previousOwner",
          "type": "address"
        },
        {
          "indexed": true,
          "internalType": "address",
          "name": "newOwner",
          "type": "address"
        }
      ],
      "name": "OwnershipTransferred",
      "type": "event"
    },
    {
      "anonymous": false,
      "inputs": [
        {
          "indexed": true,
          "internalType": "address",
          "name": "user",
          "type": "address"
        },
        {
          "indexed": false,
          "internalType": "uint256",
          "name": "amount",
          "type": "uint256"
        }
      ],
      "name": "RewardClaimed",
      "type": "event"
    },
    {
      "anonymous": false,
      "inputs": [
        {
          "indexed": false,
          "internalType": "uint256",
          "name": "newRate",
          "type": "uint256"
        }
      ],
      "name": "RewardRateUpdated",
      "type": "event"
    },
    {
      "anonymous": false,
      "inputs": [
        {
          "indexed": true,
          "internalType": "address",
          "name": "from",
          "type": "address"
        },
        {
          "indexed": true,
          "internalType": "address",
          "name": "to",
          "type": "address"
        },
        {
          "indexed": false,
          "internalType": "uint256",
          "name": "value",
          "type": "uint256"
        }
      ],
      "name": "Transfer",
      "type": "event"
    },
    {
      "inputs": [],
      "name": "MIN_CLAIM_INTERVAL",
      "outputs": [
        {
          "internalType": "uint256",
          "name": "",
          "type": "uint256"
        }
      ],
      "stateMutability": "view",
      "type": "function"
    },
    {
      "inputs": [
        {
          "internalType": "address",
          "name": "",
          "type": "address"
        }
      ],
      "name": "accumulatedCO2ReductionTons",
      "outputs": [
        {
          "internalType": "uint256",
          "name": "",
          "type": "uint256"
        }
      ],
      "stateMutability": "view",
      "type": "function"
    },
    {
      "inputs": [
        {
          "internalType": "address",
          "name": "owner",
          "type": "address"
        },
        {
          "internalType": "address",
          "name": "spender",
          "type": "address"
        }
      ],
      "name": "allowance",
      "outputs": [
        {
          "internalType": "uint256",
          "name": "",
          "type": "uint256"
        }
      ],
      "stateMutability": "view",
      "type": "function"
    },
    {
      "inputs": [
        {
          "internalType": "address",
          "name": "spender",
          "type": "address"
        },
        {
          "internalType": "uint256",
          "name": "value",
          "type": "uint256"
        }
      ],
      "name": "approve",
      "outputs": [
        {
          "internalType": "bool",
          "name": "",
          "type": "bool"
        }
      ],
      "stateMutability": "nonpayable",
      "type": "function"
    },
    {
      "inputs": [
        {
          "internalType": "address",
          "name": "account",
          "type": "address"
        }
      ],
      "name": "balanceOf",
      "outputs": [
        {
          "internalType": "uint256",
          "name": "",
          "type": "uint256"
        }
      ],
      "stateMutability": "view",
      "type": "function"
    },
    {
      "inputs": [
        {
          "internalType": "uint256",
          "name": "amount",
          "type": "uint256"
        }
      ],
      "name": "burn",
      "outputs": [],
      "stateMutability": "nonpayable",
      "type": "function"
    },
    {
      "inputs": [],
      "name": "claimReward",
      "outputs": [],
      "stateMutability": "nonpayable",
      "type": "function"
    },
    {
      "inputs": [],
      "name": "decimals",
      "outputs": [
        {
          "internalType": "uint8",
          "name": "",
          "type": "uint8"
        }
      ],
      "stateMutability": "view",
      "type": "function"
    },
    {
      "inputs": [
        {
          "internalType": "address",
          "name": "user",
          "type": "address"
        }
      ],
      "name": "getAccumulatedCO2ReductionTons",
      "outputs": [
        {
          "internalType": "uint256",
          "name": "",
          "type": "uint256"
        }
      ],
      "stateMutability": "view",
      "type": "function"
    },
    {
      "inputs": [
        {
          "internalType": "address",
          "name": "",
          "type": "address"
        }
      ],
      "name": "lastClaimTime",
      "outputs": [
        {
          "internalType": "uint256",
          "name": "",
          "type": "uint256"
        }
      ],
      "stateMutability": "view",
      "type": "function"
    },
    {
      "inputs": [],
      "name": "name",
      "outputs": [
        {
          "internalType": "string",
          "name": "",
          "type": "string"
        }
      ],
      "stateMutability": "view",
      "type": "function"
    },
    {
      "inputs": [],
      "name": "owner",
      "outputs": [
        {
          "internalType": "address",
          "name": "",
          "type": "address"
        }
      ],
      "stateMutability": "view",
      "type": "function"
    },
    {
      "inputs": [],
      "name": "renounceOwnership",
      "outputs": [],
      "stateMutability": "nonpayable",
      "type": "function"
    },
    {
      "inputs": [
        {
          "internalType": "address",
          "name": "user",
          "type": "address"
        },
        {
          "internalType": "uint256",
          "name": "amountTons",
          "type": "uint256"
        }
      ],
      "name": "reportCO2Reduction",
      "outputs": [],
      "stateMutability": "nonpayable",
      "type": "function"
    },
    {
      "inputs": [],
      "name": "rewardRate",
      "outputs": [
        {
          "internalType": "uint256",
          "name": "",
          "type": "uint256"
        }
      ],
      "stateMutability": "view",
      "type": "function"
    },
    {
      "inputs": [
        {
          "internalType": "uint256",
          "name": "newRate",
          "type": "uint256"
        }
      ],
      "name": "setRewardRate",
      "outputs": [],
      "stateMutability": "nonpayable",
      "type": "function"
    },
    {
      "inputs": [],
      "name": "symbol",
      "outputs": [
        {
          "internalType": "string",
          "name": "",
          "type": "string"
        }
      ],
      "stateMutability": "view",
      "type": "function"
    },
    {
      "inputs": [],
      "name": "totalSupply",
      "outputs": [
        {
          "internalType": "uint256",
          "name": "",
          "type": "uint256"
        }
      ],
      "stateMutability": "view",
      "type": "function"
    },
    {
      "inputs": [
        {
          "internalType": "address",
          "name": "to",
          "type": "address"
        },
        {
          "internalType": "uint256",
          "name": "value",
          "type": "uint256"
        }
      ],
      "name": "transfer",
      "outputs": [
        {
          "internalType": "bool",
          "name": "",
          "type": "bool"
        }
      ],
      "stateMutability": "nonpayable",
      "type": "function"
    },
    {
      "inputs": [
        {
          "internalType": "address",
          "name": "from",
          "type": "address"
        },
        {
          "internalType": "address",
          "name": "to",
          "type": "address"
        },
        {
          "internalType": "uint256",
          "name": "value",
          "type": "uint256"
        }
      ],
      "name": "transferFrom",
      "outputs": [
        {
          "internalType": "bool",
          "name": "",
          "type": "bool"
        }
      ],
      "stateMutability": "nonpayable",
      "type": "function"
    },
    {
      "inputs": [
        {
          "internalType": "address",
          "name": "newOwner",
          "type": "address"
        }
      ],
      "name": "transferOwnership",
      "outputs": [],
      "stateMutability": "nonpayable",
      "type": "function"
    }
  ],
  "bytecode": "0x608060405268056bc75e2d631000006007553480156200001e57600080fd5b5060405162001f6438038062001f6483398181016040528101906200004491906200029d565b806040518060400160405280601281526020017f436172626f4372656469742052657761726400000000000000000000000000008152506040518060400160405280600381526020017f43435200000000000000000000000000000000000000000000000000000000008152508160039081620000c2919062000549565b508060049081620000d4919062000549565b505050600073ffffffffffffffffffffffffffffffffffffffff168173ffffffffffffffffffffffffffffffffffffffff16036200014c5760006040517f1e4fbdf700000000000000000000000000000000000000000000000000000000815260040162000143919062000641565b60405180910390fd5b6200015d816200016d60201b60201c565b506001600681905550506200065e565b6000600560009054906101000a900473ffffffffffffffffffffffffffffffffffffffff16905081600560006101000a81548173ffffffffffffffffffffffffffffffffffffffff021916908373ffffffffffffffffffffffffffffffffffffffff1602179055508173ffffffffffffffffffffffffffffffffffffffff168173ffffffffffffffffffffffffffffffffffffffff167f8be0079c531659141344cd1fd0a4f28419497f9722a3daafe3b4186f6b6457e060405160405180910390a35050565b600080fd5b600073ffffffffffffffffffffffffffffffffffffffff82169050919050565b6000620002658262000238565b9050919050565b620002778162000258565b81146200028357600080fd5b50565b60008151905062000297816200026c565b92915050565b600060208284031215620002b657620002b562000233565b5b6000620002c68482850162000286565b91505092915050565b600081519050919050565b7f4e487b7100000000000000000000000000000000000000000000000000000000600052604160045260246000fd5b7f4e487b7100000000000000000000000000000000000000000000000000000000600052602260045260246000fd5b600060028204905060018216806200035157607f821691505b60208210810362000367576200036662000309565b5b50919050565b60008190508160005260206000209050919050565b60006020601f8301049050919050565b600082821b905092915050565b600060088302620003d17fffffffffffffffffffffffffffffffffffffffffffffffffffffffffffffffff8262000392565b620003dd868362000392565b95508019841693508086168417925050509392505050565b6000819050919050565b6000819050919050565b60006200042a620004246200041e84620003f5565b620003ff565b620003f5565b9050919050565b6000819050919050565b620004468362000409565b6200045e620004558262000431565b8484546200039f565b825550505050565b600090565b6200047562000466565b620004828184846200043b565b505050565b5b81811015620004aa576200049e6000826200046b565b60018101905062000488565b5050565b601f821115620004f957620004c3816200036d565b620004ce8462000382565b81016020851015620004de578190505b620004f6620004ed8562000382565b83018262000487565b50505b505050565b600082821c905092915050565b60006200051e60001984600802620004fe565b1980831691505092915050565b60006200053983836200050b565b9150826002028217905092915050565b6200055482620002cf565b67ffffffffffffffff81111562000570576200056f620002da565b5b6200057c825462000338565b62000589828285620004ae565b600060209050601f831160018114620005c15760008415620005ac578287015190505b620005b885826200052b565b86555062000628565b601f198416620005d1866200036d565b60005b82811015620005fb57848901518255600182019150602085019450602081019050620005d4565b868310156200061b578489015162000617601f8916826200050b565b8355505b6001600288020188555050505b505050505050565b6200063b8162000258565b82525050565b600060208201905062000658600083018462000630565b92915050565b6118f6806200066e6000396000f3fe608060405234801561001057600080fd5b50600436106101375760003560e01c80637b0a47ee116100b8578063b77cf9c61161007c578063b77cf9c614610352578063b88a802f14610382578063cd6606e21461038c578063dd62ed3e146103aa578063f2fde38b146103da578063f8106186146103f657610137565b80637b0a47ee146102ac5780638da5cb5b146102ca57806395d89b41146102e85780639e447fc614610306578063a9059cbb1461032257610137565b8063313ce567116100ff578063313ce5671461020857806342966c68146102265780634ae1f08e1461024257806370a0823114610272578063715018a6146102a257610137565b806306fdde031461013c578063095ea7b31461015a57806318160ddd1461018a57806319175ba0146101a857806323b872dd146101d8575b600080fd5b610144610412565b6040516101519190611403565b60405180910390f35b610174600480360381019061016f91906114be565b6104a4565b6040516101819190611519565b60405180910390f35b6101926104c7565b60405161019f9190611543565b60405180910390f35b6101c260048036038101906101bd919061155e565b6104d1565b6040516101cf9190611543565b60405180910390f35b6101f260048036038101906101ed919061158b565b6104e9565b6040516101ff9190611519565b60405180910390f35b610210610518565b60405161021d91906115fa565b60405180910390f35b610240600480360381019061023b9190611615565b610521565b005b61025c6004803603810190610257919061155e565b61052e565b6040516102699190611543565b60405180910390f35b61028c6004803603810190610287919061155e565b610577565b6040516102999190611543565b60405180910390f35b6102aa6105bf565b005b6102b46105d3565b6040516102c19190611543565b60405180910390f35b6102d26105d9565b6040516102df9190611651565b60405180910390f35b6102f0610603565b6040516102fd9190611403565b60405180910390f35b610320600480360381019061031b9190611615565b610695565b005b61033c600480360381019061033791906114be565b6106de565b6040516103499190611519565b60405180910390f35b61036c6004803603810190610367919061155e565b610701565b6040516103799190611543565b60405180910390f35b61038a610719565b005b610394610970565b6040516103a19190611543565b60405180910390f35b6103c460048036038101906103bf919061166c565b610977565b6040516103d19190611543565b60405180910390f35b6103f460048036038101906103ef919061155e565b6109fe565b005b610410600480360381019061040b91906114be565b610a84565b005b606060038054610421906116db565b80601f016020809104026020016040519081016040528092919081815260200182805461044d906116db565b801561049a5780601f1061046f5761010080835404028352916020019161049a565b820191906000526020600020905b81548152906001019060200180831161047d57829003601f168201915b5050505050905090565b6000806104af610b34565b90506104bc818585610b3c565b600191505092915050565b6000600254905090565b60096020528060005260406000206000915090505481565b6000806104f4610b34565b9050610501858285610b4e565b61050c858585610be2565b60019150509392505050565b60006012905090565b61052b3382610cd6565b50565b6000600960008373ffffffffffffffffffffffffffffffffffffffff1673ffffffffffffffffffffffffffffffffffffffff168152602001908152602001600020549050919050565b60008060008373ffffffffffffffffffffffffffffffffffffffff1673ffffffffffffffffffffffffffffffffffffffff168152602001908152602001600020549050919050565b6105c7610d58565b6105d16000610ddf565b565b60075481565b6000600560009054906101000a900473ffffffffffffffffffffffffffffffffffffffff16905090565b606060048054610612906116db565b80601f016020809104026020016040519081016040528092919081815260200182805461063e906116db565b801561068b5780601f106106605761010080835404028352916020019161068b565b820191906000526020600020905b81548152906001019060200180831161066e57829003601f168201915b5050505050905090565b61069d610d58565b806007819055507f41d466ebd06fb97e7786086ac8b69b7eb7da798592036251291d34e9791cde01816040516106d39190611543565b60405180910390a150565b6000806106e9610b34565b90506106f6818585610be2565b600191505092915050565b60086020528060005260406000206000915090505481565b610721610ea5565b62015180600860003373ffffffffffffffffffffffffffffffffffffffff1673ffffffffffffffffffffffffffffffffffffffff1681526020019081526020016000205461076f919061173b565b4210156107b1576040517f08c379a00000000000000000000000000000000000000000000000000000000081526004016107a8906117bb565b60405180910390fd5b6000600960003373ffffffffffffffffffffffffffffffffffffffff1673ffffffffffffffffffffffffffffffffffffffff1681526020019081526020016000205411610833576040517f08c379a000000000000000000000000000000000000000000000000000000000815260040161082a90611827565b60405180910390fd5b6000600754600960003373ffffffffffffffffffffffffffffffffffffffff1673ffffffffffffffffffffffffffffffffffffffff168152602001908152602001600020546108829190611847565b90506000600960003373ffffffffffffffffffffffffffffffffffffffff1673ffffffffffffffffffffffffffffffffffffffff1681526020019081526020016000208190555042600860003373ffffffffffffffffffffffffffffffffffffffff1673ffffffffffffffffffffffffffffffffffffffff168152602001908152602001600020819055506109173382610eeb565b3373ffffffffffffffffffffffffffffffffffffffff167f106f923f993c2149d49b4255ff723acafa1f2d94393f561d3eda32ae348f72418260405161095d9190611543565b60405180910390a25061096e610f6d565b565b6201518081565b6000600160008473ffffffffffffffffffffffffffffffffffffffff1673ffffffffffffffffffffffffffffffffffffffff16815260200190815260200160002060008373ffffffffffffffffffffffffffffffffffffffff1673ffffffffffffffffffffffffffffffffffffffff16815260200190815260200160002054905092915050565b610a06610d58565b600073ffffffffffffffffffffffffffffffffffffffff168173ffffffffffffffffffffffffffffffffffffffff1603610a785760006040517f1e4fbdf7000000000000000000000000000000000000000000000000000000008152600401610a6f9190611651565b60405180910390fd5b610a8181610ddf565b50565b610a8c610d58565b80600960008473ffffffffffffffffffffffffffffffffffffffff1673ffffffffffffffffffffffffffffffffffffffff1681526020019081526020016000206000828254610adb919061173b565b925050819055508173ffffffffffffffffffffffffffffffffffffffff167f544d847ab0e040925d65e157f34f6b09c0576a0eb320267bb7275ed8cba9d3ce82604051610b289190611543565b60405180910390a25050565b600033905090565b610b498383836001610f77565b505050565b6000610b5a8484610977565b90507fffffffffffffffffffffffffffffffffffffffffffffffffffffffffffffffff8114610bdc5781811015610bcc578281836040517ffb8f41b2000000000000000000000000000000000000000000000000000000008152600401610bc393929190611889565b60405180910390fd5b610bdb84848484036000610f77565b5b50505050565b600073ffffffffffffffffffffffffffffffffffffffff168373ffffffffffffffffffffffffffffffffffffffff1603610c545760006040517f96c6fd1e000000000000000000000000000000000000000000000000000000008152600401610c4b9190611651565b60405180910390fd5b600073ffffffffffffffffffffffffffffffffffffffff168273ffffffffffffffffffffffffffffffffffffffff1603610cc65760006040517fec442f05000000000000000000000000000000000000000000000000000000008152600401610cbd9190611651565b60405180910390fd5b610cd183838361114e565b505050565b600073ffffffffffffffffffffffffffffffffffffffff168273ffffffffffffffffffffffffffffffffffffffff1603610d485760006040517f96c6fd1e000000000000000000000000000000000000000000000000000000008152600401610d3f9190611651565b60405180910390fd5b610d548260008361114e565b5050565b610d60610b34565b73ffffffffffffffffffffffffffffffffffffffff16610d7e6105d9565b73ffffffffffffffffffffffffffffffffffffffff1614610ddd57610da1610b34565b6040517f118cdaa7000000000000000000000000000000000000000000000000000000008152600401610dd49190611651565b60405180910390fd5b565b6000600560009054906101000a900473ffffffffffffffffffffffffffffffffffffffff16905081600560006101000a81548173ffffffffffffffffffffffffffffffffffffffff021916908373ffffffffffffffffffffffffffffffffffffffff1602179055508173ffffffffffffffffffffffffffffffffffffffff168173ffffffffffffffffffffffffffffffffffffffff167f8be0079c531659141344cd1fd0a4f28419497f9722a3daafe3b4186f6b6457e060405160405180910390a35050565b600260065403610ee1576040517f3ee5aeb500000000000000000000000000000000000000000000000000000000815260040160405180910390fd5b6002600681905550565b600073ffffffffffffffffffffffffffffffffffffffff168273ffffffffffffffffffffffffffffffffffffffff1603610f5d5760006040517fec442f05000000000000000000000000000000000000000000000000000000008152600401610f549190611651565b60405180910390fd5b610f696000838361114e565b5050565b6001600681905550565b600073ffffffffffffffffffffffffffffffffffffffff168473ffffffffffffffffffffffffffffffffffffffff1603610fe95760006040517fe602df05000000000000000000000000000000000000000000000000000000008152600401610fe09190611651565b60405180910390fd5b600073ffffffffffffffffffffffffffffffffffffffff168373ffffffffffffffffffffffffffffffffffffffff160361105b5760006040517f94280d620000000000000000000000000000000000000000000000000000000081526004016110529190611651565b60405180910390fd5b81600160008673ffffffffffffffffffffffffffffffffffffffff1673ffffffffffffffffffffffffffffffffffffffff16815260200190815260200160002060008573ffffffffffffffffffffffffffffffffffffffff1673ffffffffffffffffffffffffffffffffffffffff168152602001908152602001600020819055508015611148578273ffffffffffffffffffffffffffffffffffffffff168473ffffffffffffffffffffffffffffffffffffffff167f8c5be1e5ebec7d5bd14f71427d1e84f3dd0314c0f7b2291e5b200ac8c7c3b9258460405161113f9190611543565b60405180910390a35b50505050565b600073ffffffffffffffffffffffffffffffffffffffff168373ffffffffffffffffffffffffffffffffffffffff16036111a0578060026000828254611194919061173b565b92505081905550611273565b60008060008573ffffffffffffffffffffffffffffffffffffffff1673ffffffffffffffffffffffffffffffffffffffff1681526020019081526020016000205490508181101561122c578381836040517fe450d38c00000000000000000000000000000000000000000000000000000000815260040161122393929190611889565b60405180910390fd5b8181036000808673ffffffffffffffffffffffffffffffffffffffff1673ffffffffffffffffffffffffffffffffffffffff16815260200190815260200160002081905550505b600073ffffffffffffffffffffffffffffffffffffffff168273ffffffffffffffffffffffffffffffffffffffff16036112bc5780600260008282540392505081905550611309565b806000808473ffffffffffffffffffffffffffffffffffffffff1673ffffffffffffffffffffffffffffffffffffffff168152602001908152602001600020600082825401925050819055505b8173ffffffffffffffffffffffffffffffffffffffff168373ffffffffffffffffffffffffffffffffffffffff167fddf252ad1be2c89b69c2b068fc378daa952ba7f163c4a11628f55a4df523b3ef836040516113669190611543565b60405180910390a3505050565b600081519050919050565b600082825260208201905092915050565b60005b838110156113ad578082015181840152602081019050611392565b60008484015250505050565b6000601f19601f8301169050919050565b60006113d582611373565b6113df818561137e565b93506113ef81856020860161138f565b6113f8816113b9565b840191505092915050565b6000602082019050818103600083015261141d81846113ca565b905092915050565b600080fd5b600073ffffffffffffffffffffffffffffffffffffffff82169050919050565b60006114558261142a565b9050919050565b6114658161144a565b811461147057600080fd5b50565b6000813590506114828161145c565b92915050565b6000819050919050565b61149b81611488565b81146114a657600080fd5b50565b6000813590506114b881611492565b92915050565b600080604083850312156114d5576114d4611425565b5b60006114e385828601611473565b92505060206114f4858286016114a9565b9150509250929050565b60008115159050919050565b611513816114fe565b82525050565b600060208201905061152e600083018461150a565b92915050565b61153d81611488565b82525050565b60006020820190506115586000830184611534565b92915050565b60006020828403121561157457611573611425565b5b600061158284828501611473565b91505092915050565b6000806000606084860312156115a4576115a3611425565b5b60006115b286828701611473565b93505060206115c386828701611473565b92505060406115d4868287016114a9565b9150509250925092565b600060ff82169050919050565b6115f4816115de565b82525050565b600060208201905061160f60008301846115eb565b92915050565b60006020828403121561162b5761162a611425565b5b6000611639848285016114a9565b91505092915050565b61164b8161144a565b82525050565b60006020820190506116666000830184611642565b92915050565b6000806040838503121561168357611682611425565b5b600061169185828601611473565b92505060206116a285828601611473565b9150509250929050565b7f4e487b7100000000000000000000000000000000000000000000000000000000600052602260045260246000fd5b600060028204905060018216806116f357607f821691505b602082108103611706576117056116ac565b5b50919050565b7f4e487b7100000000000000000000000000000000000000000000000000000000600052601160045260246000fd5b600061174682611488565b915061175183611488565b92508282019050808211156117695761176861170c565b5b92915050565b7f546f6f20736f6f6e20746f20636c61696d000000000000000000000000000000600082015250565b60006117a560118361137e565b91506117b08261176f565b602082019050919050565b600060208201905081810360008301526117d481611798565b9050919050565b7f4e6f20434f3220726564756374696f6e20746f20636c61696d00000000000000600082015250565b600061181160198361137e565b915061181c826117db565b602082019050919050565b6000602082019050818103600083015261184081611804565b9050919050565b600061185282611488565b915061185d83611488565b925082820261186b81611488565b915082820484148315176118825761188161170c565b5b5092915050565b600060608201905061189e6000830186611642565b6118ab6020830185611534565b6118b86040830184611534565b94935050505056fea264697066735822122077bcf5875de2485af7921ec359bd13c6c6cf755bfbd9765830d183da7a08531164736f6c63430008140033",
  "linkReferences": {},
  "deployedLinkReferences": {}
}