{
  "_format": "hh-sol-artifact-1",
  "contractName": "CarbonCreditToken",
  "sourceName": "contracts/CarbonCreditToken.sol",
  "abi": [
    {
      "inputs": [
        {
          "internalType": "address",
          "name": "initialOwner",
          "type": "address"
        }
      ],
      "stateMutability": "nonpayable",
      "type": "constructor"
    },
    {
      "inputs": [
        {
          "internalType": "address",
          "name": "sender",
          "type": "address"
        },
        {
          "internalType": "uint256",
          "name": "tokenId",
          "type": "uint256"
        },
        {
          "internalType": "address",
          "name": "owner",
          "type": "address"
        }
      ],
      "name": "ERC721IncorrectOwner",
      "type": "error"
    },
    {
      "inputs": [
        {
          "internalType": "address",
          "name": "operator",
          "type": "address"
        },
        {
          "internalType": "uint256",
          "name": "tokenId",
          "type": "uint256"
        }
      ],
      "name": "ERC721InsufficientApproval",
      "type": "error"
    },
    {
      "inputs": [
        {
          "internalType": "address",
          "name": "approver",
          "type": "address"
        }
      ],
      "name": "ERC721InvalidApprover",
      "type": "error"
    },
    {
      "inputs": [
        {
          "internalType": "address",
          "name": "operator",
          "type": "address"
        }
      ],
      "name": "ERC721InvalidOperator",
      "type": "error"
    },
    {
      "inputs": [
        {
          "internalType": "address",
          "name": "owner",
          "type": "address"
        }
      ],
      "name": "ERC721InvalidOwner",
      "type": "error"
    },
    {
      "inputs": [
        {
          "internalType": "address",
          "name": "receiver",
          "type": "address"
        }
      ],
      "name": "ERC721InvalidReceiver",
      "type": "error"
    },
    {
      "inputs": [
        {
          "internalType": "address",
          "name": "sender",
          "type": "address"
        }
      ],
      "name": "ERC721InvalidSender",
      "type": "error"
    },
    {
      "inputs": [
        {
          "internalType": "uint256",
          "name": "tokenId",
          "type": "uint256"
        }
      ],
      "name": "ERC721NonexistentToken",
      "type": "error"
    },
    {
      "inputs": [
        {
          "internalType": "address",
          "name": "owner",
          "type": "address"
        }
      ],
      "name": "OwnableInvalidOwner",
      "type": "error"
    },
    {
      "inputs": [
        {
          "internalType": "address",
          "name": "account",
          "type": "address"
        }
      ],
      "name": "OwnableUnauthorizedAccount",
      "type": "error"
    },
    {
      "anonymous": false,
      "inputs": [
        {
          "indexed": true,
          "internalType": "address",
          "name": "owner",
          "type": "address"
        },
        {
          "indexed": true,
          "internalType": "address",
          "name": "approved",
          "type": "address"
        },
        {
          "indexed": true,
          "internalType": "uint256",
          "name": "tokenId",
          "type": "uint256"
        }
      ],
      "name": "Approval",
      "type": "event"
    },
    {
      "anonymous": false,
      "inputs": [
        {
          "indexed": true,
          "internalType": "address",
          "name": "owner",
          "type": "address"
        },
        {
          "indexed": true,
          "internalType": "address",
          "name": "operator",
          "type": "address"
        },
        {
          "indexed": false,
          "internalType": "bool",
          "name": "approved",
          "type": "bool"
        }
      ],
      "name": "ApprovalForAll",
      "type": "event"
    },
    {
      "anonymous": false,
      "inputs": [
        {
          "indexed": true,
          "internalType": "uint256",
          "name": "tokenId",
          "type": "uint256"
        },
        {
          "indexed": true,
          "internalType": "address",
          "name": "recipient",
          "type": "address"
        },
        {
          "indexed": false,
          "internalType": "uint256",
          "name": "amountTons",
          "type": "uint256"
        },
        {
          "indexed": false,
          "internalType": "string",
          "name": "projectId",
          "type": "string"
        }
      ],
      "name": "CreditMinted",
      "type": "event"
    },
    {
      "anonymous": false,
      "inputs": [
        {
          "indexed": true,
          "internalType": "address",
          "name": "previousOwner",
          "type": "address"
        },
        {
          "indexed": true,
          "internalType": "address",
          "name": "newOwner",
          "type": "address"
        }
      ],
      "name": "OwnershipTransferred",
      "type": "event"
    },
    {
      "anonymous": false,
      "inputs": [
        {
          "indexed": true,
          "internalType": "address",
          "name": "from",
          "type": "address"
        },
        {
          "indexed": true,
          "internalType": "address",
          "name": "to",
          "type": "address"
        },
        {
          "indexed": true,
          "internalType": "uint256",
          "name": "tokenId",
          "type": "uint256"
        }
      ],
      "name": "Transfer",
      "type": "event"
    },
    {
      "inputs": [
        {
          "internalType": "address",
          "name": "to",
          "type": "address"
        },
        {
          "internalType": "uint256",
          "name": "tokenId",
          "type": "uint256"
        }
      ],
      "name": "approve",
      "outputs": [],
      "stateMutability": "nonpayable",
      "type": "function"
    },
    {
      "inputs": [
        {
          "internalType": "address",
          "name": "owner",
          "type": "address"
        }
      ],
      "name": "balanceOf",
      "outputs": [
        {
          "internalType": "uint256",
          "name": "",
          "type": "uint256"
        }
      ],
      "stateMutability": "view",
      "type": "function"
    },
    {
      "inputs": [
        {
          "internalType": "uint256",
          "name": "",
          "type": "uint256"
        }
      ],
      "name": "creditMetadata",
      "outputs": [
        {
          "internalType": "uint256",
          "name": "amountTons",
          "type": "uint256"
        },
        {
          "internalType": "string",
          "name": "projectId",
          "type": "string"
        },
        {
          "internalType": "uint256",
          "name": "verificationDate",
          "type": "uint256"
        }
      ],
      "stateMutability": "view",
      "type": "function"
    },
    {
      "inputs": [
        {
          "internalType": "uint256",
          "name": "tokenId",
          "type": "uint256"
        }
      ],
      "name": "getApproved",
      "outputs": [
        {
          "internalType": "address",
          "name": "",
          "type": "address"
        }
      ],
      "stateMutability": "view",
      "type": "function"
    },
    {
      "inputs": [
        {
          "internalType": "uint256",
          "name": "tokenId",
          "type": "uint256"
        }
      ],
      "name": "getCreditMetadata",
      "outputs": [
        {
          "components": [
            {
              "internalType": "uint256",
              "name": "amountTons",
              "type": "uint256"
            },
            {
              "internalType": "string",
              "name": "projectId",
              "type": "string"
            },
            {
              "internalType": "uint256",
              "name": "verificationDate",
              "type": "uint256"
            }
          ],
          "internalType": "struct CarbonCreditToken.CreditMetadata",
          "name": "",
          "type": "tuple"
        }
      ],
      "stateMutability": "view",
      "type": "function"
    },
    {
      "inputs": [
        {
          "internalType": "address",
          "name": "owner",
          "type": "address"
        },
        {
          "internalType": "address",
          "name": "operator",
          "type": "address"
        }
      ],
      "name": "isApprovedForAll",
      "outputs": [
        {
          "internalType": "bool",
          "name": "",
          "type": "bool"
        }
      ],
      "stateMutability": "view",
      "type": "function"
    },
    {
      "inputs": [
        {
          "internalType": "address",
          "name": "recipient",
          "type": "address"
        },
        {
          "internalType": "uint256",
          "name": "amountTons",
          "type": "uint256"
        },
        {
          "internalType": "string",
          "name": "projectId",
          "type": "string"
        }
      ],
      "name": "mintCredit",
      "outputs": [
        {
          "internalType": "uint256",
          "name": "",
          "type": "uint256"
        }
      ],
      "stateMutability": "nonpayable",
      "type": "function"
    },
    {
      "inputs": [],
      "name": "name",
      "outputs": [
        {
          "internalType": "string",
          "name": "",
          "type": "string"
        }
      ],
      "stateMutability": "view",
      "type": "function"
    },
    {
      "inputs": [],
      "name": "owner",
      "outputs": [
        {
          "internalType": "address",
          "name": "",
          "type": "address"
        }
      ],
      "stateMutability": "view",
      "type": "function"
    },
    {
      "inputs": [
        {
          "internalType": "uint256",
          "name": "tokenId",
          "type": "uint256"
        }
      ],
      "name": "ownerOf",
      "outputs": [
        {
          "internalType": "address",
          "name": "",
          "type": "address"
        }
      ],
      "stateMutability": "view",
      "type": "function"
    },
    {
      "inputs": [],
      "name": "renounceOwnership",
      "outputs": [],
      "stateMutability": "nonpayable",
      "type": "function"
    },
    {
      "inputs": [
        {
          "internalType": "address",
          "name": "from",
          "type": "address"
        },
        {
          "internalType": "address",
          "name": "to",
          "type": "address"
        },
        {
          "internalType": "uint256",
          "name": "tokenId",
          "type": "uint256"
        }
      ],
      "name": "safeTransferFrom",
      "outputs": [],
      "stateMutability": "nonpayable",
      "type": "function"
    },
    {
      "inputs": [
        {
          "internalType": "address",
          "name": "from",
          "type": "address"
        },
        {
          "internalType": "address",
          "name": "to",
          "type": "address"
        },
        {
          "internalType": "uint256",
          "name": "tokenId",
          "type": "uint256"
        },
        {
          "internalType": "bytes",
          "name": "data",
          "type": "bytes"
        }
      ],
      "name": "safeTransferFrom",
      "outputs": [],
      "stateMutability": "nonpayable",
      "type": "function"
    },
    {
      "inputs": [
        {
          "internalType": "address",
          "name": "operator",
          "type": "address"
        },
        {
          "internalType": "bool",
          "name": "approved",
          "type": "bool"
        }
      ],
      "name": "setApprovalForAll",
      "outputs": [],
      "stateMutability": "nonpayable",
      "type": "function"
    },
    {
      "inputs": [
        {
          "internalType": "bytes4",
          "name": "interfaceId",
          "type": "bytes4"
        }
      ],
      "name": "supportsInterface",
      "outputs": [
        {
          "internalType": "bool",
          "name": "",
          "type": "bool"
        }
      ],
      "stateMutability": "view",
      "type": "function"
    },
    {
      "inputs": [],
      "name": "symbol",
      "outputs": [
        {
          "internalType": "string",
          "name": "",
          "type": "string"
        }
      ],
      "stateMutability": "view",
      "type": "function"
    },
    {
      "inputs": [
        {
          "internalType": "uint256",
          "name": "tokenId",
          "type": "uint256"
        }
      ],
      "name": "tokenURI",
      "outputs": [
        {
          "internalType": "string",
          "name": "",
          "type": "string"
        }
      ],
      "stateMutability": "view",
      "type": "function"
    },
    {
      "inputs": [
        {
          "internalType": "address",
          "name": "from",
          "type": "address"
        },
        {
          "internalType": "address",
          "name": "to",
          "type": "address"
        },
        {
          "internalType": "uint256",
          "name": "tokenId",
          "type": "uint256"
        }
      ],
      "name": "transferFrom",
      "outputs": [],
      "stateMutability": "nonpayable",
      "type": "function"
    },
    {
      "inputs": [
        {
          "internalType": "address",
          "name": "newOwner",
          "type": "address"
        }
      ],
      "name": "transferOwnership",
      "outputs": [],
      "stateMutability": "nonpayable",
      "type": "function"
    }
  ],
  "bytecode": "0x60806040523480156200001157600080fd5b5060405162002fbb38038062002fbb833981810160405281019062000037919062000288565b806040518060400160405280601181526020017f436172626f6e437265646974546f6b656e0000000000000000000000000000008152506040518060400160405280600381526020017f43435400000000000000000000000000000000000000000000000000000000008152508160009081620000b5919062000534565b508060019081620000c7919062000534565b505050600073ffffffffffffffffffffffffffffffffffffffff168173ffffffffffffffffffffffffffffffffffffffff16036200013f5760006040517f1e4fbdf70000000000000000000000000000000000000000000000000000000081526004016200013691906200062c565b60405180910390fd5b62000150816200015860201b60201c565b505062000649565b6000600660009054906101000a900473ffffffffffffffffffffffffffffffffffffffff16905081600660006101000a81548173ffffffffffffffffffffffffffffffffffffffff021916908373ffffffffffffffffffffffffffffffffffffffff1602179055508173ffffffffffffffffffffffffffffffffffffffff168173ffffffffffffffffffffffffffffffffffffffff167f8be0079c531659141344cd1fd0a4f28419497f9722a3daafe3b4186f6b6457e060405160405180910390a35050565b600080fd5b600073ffffffffffffffffffffffffffffffffffffffff82169050919050565b6000620002508262000223565b9050919050565b620002628162000243565b81146200026e57600080fd5b50565b600081519050620002828162000257565b92915050565b600060208284031215620002a157620002a06200021e565b5b6000620002b18482850162000271565b91505092915050565b600081519050919050565b7f4e487b7100000000000000000000000000000000000000000000000000000000600052604160045260246000fd5b7f4e487b7100000000000000000000000000000000000000000000000000000000600052602260045260246000fd5b600060028204905060018216806200033c57607f821691505b602082108103620003525762000351620002f4565b5b50919050565b60008190508160005260206000209050919050565b60006020601f8301049050919050565b600082821b905092915050565b600060088302620003bc7fffffffffffffffffffffffffffffffffffffffffffffffffffffffffffffffff826200037d565b620003c886836200037d565b95508019841693508086168417925050509392505050565b6000819050919050565b6000819050919050565b6000620004156200040f6200040984620003e0565b620003ea565b620003e0565b9050919050565b6000819050919050565b6200043183620003f4565b6200044962000440826200041c565b8484546200038a565b825550505050565b600090565b6200046062000451565b6200046d81848462000426565b505050565b5b8181101562000495576200048960008262000456565b60018101905062000473565b5050565b601f821115620004e457620004ae8162000358565b620004b9846200036d565b81016020851015620004c9578190505b620004e1620004d8856200036d565b83018262000472565b50505b505050565b600082821c905092915050565b60006200050960001984600802620004e9565b1980831691505092915050565b6000620005248383620004f6565b9150826002028217905092915050565b6200053f82620002ba565b67ffffffffffffffff8111156200055b576200055a620002c5565b5b62000567825462000323565b6200057482828562000499565b600060209050601f831160018114620005ac576000841562000597578287015190505b620005a3858262000516565b86555062000613565b601f198416620005bc8662000358565b60005b82811015620005e657848901518255600182019150602085019450602081019050620005bf565b8683101562000606578489015162000602601f891682620004f6565b8355505b6001600288020188555050505b505050505050565b620006268162000243565b82525050565b60006020820190506200064360008301846200061b565b92915050565b61296280620006596000396000f3fe608060405234801561001057600080fd5b50600436106101215760003560e01c8063715018a6116100ad578063b88d4fde11610071578063b88d4fde1461031a578063c87b56dd14610336578063d20bc7a214610366578063e985e9c514610398578063f2fde38b146103c857610121565b8063715018a61461028857806371a5ac8e146102925780638da5cb5b146102c257806395d89b41146102e0578063a22cb465146102fe57610121565b806323b872dd116100f457806323b872dd146101c05780632456879c146101dc57806342842e0e1461020c5780636352211e1461022857806370a082311461025857610121565b806301ffc9a71461012657806306fdde0314610156578063081812fc14610174578063095ea7b3146101a4575b600080fd5b610140600480360381019061013b9190611c16565b6103e4565b60405161014d9190611c5e565b60405180910390f35b61015e6104c6565b60405161016b9190611d09565b60405180910390f35b61018e60048036038101906101899190611d61565b610558565b60405161019b9190611dcf565b60405180910390f35b6101be60048036038101906101b99190611e16565b610574565b005b6101da60048036038101906101d59190611e56565b61058a565b005b6101f660048036038101906101f19190611fde565b61068c565b604051610203919061205c565b60405180910390f35b61022660048036038101906102219190611e56565b6107a4565b005b610242600480360381019061023d9190611d61565b6107c4565b60405161024f9190611dcf565b60405180910390f35b610272600480360381019061026d9190612077565b6107d6565b60405161027f919061205c565b60405180910390f35b610290610890565b005b6102ac60048036038101906102a79190611d61565b6108a4565b6040516102b9919061214d565b60405180910390f35b6102ca6109d7565b6040516102d79190611dcf565b60405180910390f35b6102e8610a01565b6040516102f59190611d09565b60405180910390f35b6103186004803603810190610313919061219b565b610a93565b005b610334600480360381019061032f919061227c565b610aa9565b005b610350600480360381019061034b9190611d61565b610ac6565b60405161035d9190611d09565b60405180910390f35b610380600480360381019061037b9190611d61565b610b2f565b60405161038f939291906122ff565b60405180910390f35b6103b260048036038101906103ad919061233d565b610be1565b6040516103bf9190611c5e565b60405180910390f35b6103e260048036038101906103dd9190612077565b610c75565b005b60007f80ac58cd000000000000000000000000000000000000000000000000000000007bffffffffffffffffffffffffffffffffffffffffffffffffffffffff1916827bffffffffffffffffffffffffffffffffffffffffffffffffffffffff191614806104af57507f5b5e139f000000000000000000000000000000000000000000000000000000007bffffffffffffffffffffffffffffffffffffffffffffffffffffffff1916827bffffffffffffffffffffffffffffffffffffffffffffffffffffffff1916145b806104bf57506104be82610cfb565b5b9050919050565b6060600080546104d5906123ac565b80601f0160208091040260200160405190810160405280929190818152602001828054610501906123ac565b801561054e5780601f106105235761010080835404028352916020019161054e565b820191906000526020600020905b81548152906001019060200180831161053157829003601f168201915b5050505050905090565b600061056382610d65565b5061056d82610ded565b9050919050565b6105868282610581610e2a565b610e32565b5050565b600073ffffffffffffffffffffffffffffffffffffffff168273ffffffffffffffffffffffffffffffffffffffff16036105fc5760006040517f64a0ae920000000000000000000000000000000000000000000000000000000081526004016105f39190611dcf565b60405180910390fd5b6000610610838361060b610e2a565b610e44565b90508373ffffffffffffffffffffffffffffffffffffffff168173ffffffffffffffffffffffffffffffffffffffff1614610686578382826040517f64283d7b00000000000000000000000000000000000000000000000000000000815260040161067d939291906123dd565b60405180910390fd5b50505050565b600061069661105e565b600060075490506106a785826110e5565b604051806060016040528085815260200184815260200142815250600960008381526020019081526020016000206000820151816000015560208201518160010190816106f491906125c0565b506040820151816002015590505060016008600083815260200190815260200160002060006101000a81548160ff02191690831515021790555060016007600082825461074191906126c1565b925050819055508473ffffffffffffffffffffffffffffffffffffffff16817f2d940840fa8ede83d595a02ea6ff01d68ae40eac9760ae692bcc45c170e9d7f086866040516107919291906126f5565b60405180910390a3809150509392505050565b6107bf83838360405180602001604052806000815250610aa9565b505050565b60006107cf82610d65565b9050919050565b60008073ffffffffffffffffffffffffffffffffffffffff168273ffffffffffffffffffffffffffffffffffffffff16036108495760006040517f89c62b640000000000000000000000000000000000000000000000000000000081526004016108409190611dcf565b60405180910390fd5b600360008373ffffffffffffffffffffffffffffffffffffffff1673ffffffffffffffffffffffffffffffffffffffff168152602001908152602001600020549050919050565b61089861105e565b6108a260006111de565b565b6108ac611b89565b6008600083815260200190815260200160002060009054906101000a900460ff1661090c576040517f08c379a000000000000000000000000000000000000000000000000000000000815260040161090390612771565b60405180910390fd5b6009600083815260200190815260200160002060405180606001604052908160008201548152602001600182018054610944906123ac565b80601f0160208091040260200160405190810160405280929190818152602001828054610970906123ac565b80156109bd5780601f10610992576101008083540402835291602001916109bd565b820191906000526020600020905b8154815290600101906020018083116109a057829003601f168201915b505050505081526020016002820154815250509050919050565b6000600660009054906101000a900473ffffffffffffffffffffffffffffffffffffffff16905090565b606060018054610a10906123ac565b80601f0160208091040260200160405190810160405280929190818152602001828054610a3c906123ac565b8015610a895780601f10610a5e57610100808354040283529160200191610a89565b820191906000526020600020905b815481529060010190602001808311610a6c57829003601f168201915b5050505050905090565b610aa5610a9e610e2a565b83836112a4565b5050565b610ab484848461058a565b610ac084848484611413565b50505050565b6060610ad182610d65565b506000610adc6115ca565b90506000815111610afc5760405180602001604052806000815250610b27565b80610b06846115e1565b604051602001610b179291906127cd565b6040516020818303038152906040525b915050919050565b6009602052806000526040600020600091509050806000015490806001018054610b58906123ac565b80601f0160208091040260200160405190810160405280929190818152602001828054610b84906123ac565b8015610bd15780601f10610ba657610100808354040283529160200191610bd1565b820191906000526020600020905b815481529060010190602001808311610bb457829003601f168201915b5050505050908060020154905083565b6000600560008473ffffffffffffffffffffffffffffffffffffffff1673ffffffffffffffffffffffffffffffffffffffff16815260200190815260200160002060008373ffffffffffffffffffffffffffffffffffffffff1673ffffffffffffffffffffffffffffffffffffffff16815260200190815260200160002060009054906101000a900460ff16905092915050565b610c7d61105e565b600073ffffffffffffffffffffffffffffffffffffffff168173ffffffffffffffffffffffffffffffffffffffff1603610cef5760006040517f1e4fbdf7000000000000000000000000000000000000000000000000000000008152600401610ce69190611dcf565b60405180910390fd5b610cf8816111de565b50565b60007f01ffc9a7000000000000000000000000000000000000000000000000000000007bffffffffffffffffffffffffffffffffffffffffffffffffffffffff1916827bffffffffffffffffffffffffffffffffffffffffffffffffffffffff1916149050919050565b600080610d71836116af565b9050600073ffffffffffffffffffffffffffffffffffffffff168173ffffffffffffffffffffffffffffffffffffffff1603610de457826040517f7e273289000000000000000000000000000000000000000000000000000000008152600401610ddb919061205c565b60405180910390fd5b80915050919050565b60006004600083815260200190815260200160002060009054906101000a900473ffffffffffffffffffffffffffffffffffffffff169050919050565b600033905090565b610e3f83838360016116ec565b505050565b600080610e50846116af565b9050600073ffffffffffffffffffffffffffffffffffffffff168373ffffffffffffffffffffffffffffffffffffffff1614610e9257610e918184866118b1565b5b600073ffffffffffffffffffffffffffffffffffffffff168173ffffffffffffffffffffffffffffffffffffffff1614610f2357610ed46000856000806116ec565b6001600360008373ffffffffffffffffffffffffffffffffffffffff1673ffffffffffffffffffffffffffffffffffffffff168152602001908152602001600020600082825403925050819055505b600073ffffffffffffffffffffffffffffffffffffffff168573ffffffffffffffffffffffffffffffffffffffff1614610fa6576001600360008773ffffffffffffffffffffffffffffffffffffffff1673ffffffffffffffffffffffffffffffffffffffff168152602001908152602001600020600082825401925050819055505b846002600086815260200190815260200160002060006101000a81548173ffffffffffffffffffffffffffffffffffffffff021916908373ffffffffffffffffffffffffffffffffffffffff160217905550838573ffffffffffffffffffffffffffffffffffffffff168273ffffffffffffffffffffffffffffffffffffffff167fddf252ad1be2c89b69c2b068fc378daa952ba7f163c4a11628f55a4df523b3ef60405160405180910390a4809150509392505050565b611066610e2a565b73ffffffffffffffffffffffffffffffffffffffff166110846109d7565b73ffffffffffffffffffffffffffffffffffffffff16146110e3576110a7610e2a565b6040517f118cdaa70000000000000000000000000000000000000000000000000000000081526004016110da9190611dcf565b60405180910390fd5b565b600073ffffffffffffffffffffffffffffffffffffffff168273ffffffffffffffffffffffffffffffffffffffff16036111575760006040517f64a0ae9200000000000000000000000000000000000000000000000000000000815260040161114e9190611dcf565b60405180910390fd5b600061116583836000610e44565b9050600073ffffffffffffffffffffffffffffffffffffffff168173ffffffffffffffffffffffffffffffffffffffff16146111d95760006040517f73c6ac6e0000000000000000000000000000000000000000000000000000000081526004016111d09190611dcf565b60405180910390fd5b505050565b6000600660009054906101000a900473ffffffffffffffffffffffffffffffffffffffff16905081600660006101000a81548173ffffffffffffffffffffffffffffffffffffffff021916908373ffffffffffffffffffffffffffffffffffffffff1602179055508173ffffffffffffffffffffffffffffffffffffffff168173ffffffffffffffffffffffffffffffffffffffff167f8be0079c531659141344cd1fd0a4f28419497f9722a3daafe3b4186f6b6457e060405160405180910390a35050565b600073ffffffffffffffffffffffffffffffffffffffff168273ffffffffffffffffffffffffffffffffffffffff160361131557816040517f5b08ba1800000000000000000000000000000000000000000000000000000000815260040161130c9190611dcf565b60405180910390fd5b80600560008573ffffffffffffffffffffffffffffffffffffffff1673ffffffffffffffffffffffffffffffffffffffff16815260200190815260200160002060008473ffffffffffffffffffffffffffffffffffffffff1673ffffffffffffffffffffffffffffffffffffffff16815260200190815260200160002060006101000a81548160ff0219169083151502179055508173ffffffffffffffffffffffffffffffffffffffff168373ffffffffffffffffffffffffffffffffffffffff167f17307eab39ab6107e8899845ad3d59bd9653f200f220920489ca2b5937696c31836040516114069190611c5e565b60405180910390a3505050565b60008373ffffffffffffffffffffffffffffffffffffffff163b11156115c4578273ffffffffffffffffffffffffffffffffffffffff1663150b7a02611457610e2a565b8685856040518563ffffffff1660e01b81526004016114799493929190612846565b6020604051808303816000875af19250505080156114b557506040513d601f19601f820116820180604052508101906114b291906128a7565b60015b611539573d80600081146114e5576040519150601f19603f3d011682016040523d82523d6000602084013e6114ea565b606091505b50600081510361153157836040517f64a0ae920000000000000000000000000000000000000000000000000000000081526004016115289190611dcf565b60405180910390fd5b805181602001fd5b63150b7a0260e01b7bffffffffffffffffffffffffffffffffffffffffffffffffffffffff1916817bffffffffffffffffffffffffffffffffffffffffffffffffffffffff1916146115c257836040517f64a0ae920000000000000000000000000000000000000000000000000000000081526004016115b99190611dcf565b60405180910390fd5b505b50505050565b606060405180602001604052806000815250905090565b6060600060016115f084611975565b01905060008167ffffffffffffffff81111561160f5761160e611eb3565b5b6040519080825280601f01601f1916602001820160405280156116415781602001600182028036833780820191505090505b509050600082602001820190505b6001156116a4578080600190039150507f3031323334353637383961626364656600000000000000000000000000000000600a86061a8153600a8581611698576116976128d4565b5b0494506000850361164f575b819350505050919050565b60006002600083815260200190815260200160002060009054906101000a900473ffffffffffffffffffffffffffffffffffffffff169050919050565b80806117255750600073ffffffffffffffffffffffffffffffffffffffff168273ffffffffffffffffffffffffffffffffffffffff1614155b1561185957600061173584610d65565b9050600073ffffffffffffffffffffffffffffffffffffffff168373ffffffffffffffffffffffffffffffffffffffff16141580156117a057508273ffffffffffffffffffffffffffffffffffffffff168173ffffffffffffffffffffffffffffffffffffffff1614155b80156117b357506117b18184610be1565b155b156117f557826040517fa9fbf51f0000000000000000000000000000000000000000000000000000000081526004016117ec9190611dcf565b60405180910390fd5b811561185757838573ffffffffffffffffffffffffffffffffffffffff168273ffffffffffffffffffffffffffffffffffffffff167f8c5be1e5ebec7d5bd14f71427d1e84f3dd0314c0f7b2291e5b200ac8c7c3b92560405160405180910390a45b505b836004600085815260200190815260200160002060006101000a81548173ffffffffffffffffffffffffffffffffffffffff021916908373ffffffffffffffffffffffffffffffffffffffff16021790555050505050565b6118bc838383611ac8565b61197057600073ffffffffffffffffffffffffffffffffffffffff168373ffffffffffffffffffffffffffffffffffffffff160361193157806040517f7e273289000000000000000000000000000000000000000000000000000000008152600401611928919061205c565b60405180910390fd5b81816040517f177e802f000000000000000000000000000000000000000000000000000000008152600401611967929190612903565b60405180910390fd5b505050565b600080600090507a184f03e93ff9f4daa797ed6e38ed64bf6a1f01000000000000000083106119d3577a184f03e93ff9f4daa797ed6e38ed64bf6a1f01000000000000000083816119c9576119c86128d4565b5b0492506040810190505b6d04ee2d6d415b85acef81000000008310611a10576d04ee2d6d415b85acef81000000008381611a0657611a056128d4565b5b0492506020810190505b662386f26fc100008310611a3f57662386f26fc100008381611a3557611a346128d4565b5b0492506010810190505b6305f5e1008310611a68576305f5e1008381611a5e57611a5d6128d4565b5b0492506008810190505b6127108310611a8d576127108381611a8357611a826128d4565b5b0492506004810190505b60648310611ab05760648381611aa657611aa56128d4565b5b0492506002810190505b600a8310611abf576001810190505b80915050919050565b60008073ffffffffffffffffffffffffffffffffffffffff168373ffffffffffffffffffffffffffffffffffffffff1614158015611b8057508273ffffffffffffffffffffffffffffffffffffffff168473ffffffffffffffffffffffffffffffffffffffff161480611b415750611b408484610be1565b5b80611b7f57508273ffffffffffffffffffffffffffffffffffffffff16611b6783610ded565b73ffffffffffffffffffffffffffffffffffffffff16145b5b90509392505050565b60405180606001604052806000815260200160608152602001600081525090565b6000604051905090565b600080fd5b600080fd5b60007fffffffff0000000000000000000000000000000000000000000000000000000082169050919050565b611bf381611bbe565b8114611bfe57600080fd5b50565b600081359050611c1081611bea565b92915050565b600060208284031215611c2c57611c2b611bb4565b5b6000611c3a84828501611c01565b91505092915050565b60008115159050919050565b611c5881611c43565b82525050565b6000602082019050611c736000830184611c4f565b92915050565b600081519050919050565b600082825260208201905092915050565b60005b83811015611cb3578082015181840152602081019050611c98565b60008484015250505050565b6000601f19601f8301169050919050565b6000611cdb82611c79565b611ce58185611c84565b9350611cf5818560208601611c95565b611cfe81611cbf565b840191505092915050565b60006020820190508181036000830152611d238184611cd0565b905092915050565b6000819050919050565b611d3e81611d2b565b8114611d4957600080fd5b50565b600081359050611d5b81611d35565b92915050565b600060208284031215611d7757611d76611bb4565b5b6000611d8584828501611d4c565b91505092915050565b600073ffffffffffffffffffffffffffffffffffffffff82169050919050565b6000611db982611d8e565b9050919050565b611dc981611dae565b82525050565b6000602082019050611de46000830184611dc0565b92915050565b611df381611dae565b8114611dfe57600080fd5b50565b600081359050611e1081611dea565b92915050565b60008060408385031215611e2d57611e2c611bb4565b5b6000611e3b85828601611e01565b9250506020611e4c85828601611d4c565b9150509250929050565b600080600060608486031215611e6f57611e6e611bb4565b5b6000611e7d86828701611e01565b9350506020611e8e86828701611e01565b9250506040611e9f86828701611d4c565b9150509250925092565b600080fd5b600080fd5b7f4e487b7100000000000000000000000000000000000000000000000000000000600052604160045260246000fd5b611eeb82611cbf565b810181811067ffffffffffffffff82111715611f0a57611f09611eb3565b5b80604052505050565b6000611f1d611baa565b9050611f298282611ee2565b919050565b600067ffffffffffffffff821115611f4957611f48611eb3565b5b611f5282611cbf565b9050602081019050919050565b82818337600083830152505050565b6000611f81611f7c84611f2e565b611f13565b905082815260208101848484011115611f9d57611f9c611eae565b5b611fa8848285611f5f565b509392505050565b600082601f830112611fc557611fc4611ea9565b5b8135611fd5848260208601611f6e565b91505092915050565b600080600060608486031215611ff757611ff6611bb4565b5b600061200586828701611e01565b935050602061201686828701611d4c565b925050604084013567ffffffffffffffff81111561203757612036611bb9565b5b61204386828701611fb0565b9150509250925092565b61205681611d2b565b82525050565b6000602082019050612071600083018461204d565b92915050565b60006020828403121561208d5761208c611bb4565b5b600061209b84828501611e01565b91505092915050565b6120ad81611d2b565b82525050565b600082825260208201905092915050565b60006120cf82611c79565b6120d981856120b3565b93506120e9818560208601611c95565b6120f281611cbf565b840191505092915050565b600060608301600083015161211560008601826120a4565b506020830151848203602086015261212d82826120c4565b915050604083015161214260408601826120a4565b508091505092915050565b6000602082019050818103600083015261216781846120fd565b905092915050565b61217881611c43565b811461218357600080fd5b50565b6000813590506121958161216f565b92915050565b600080604083850312156121b2576121b1611bb4565b5b60006121c085828601611e01565b92505060206121d185828601612186565b9150509250929050565b600067ffffffffffffffff8211156121f6576121f5611eb3565b5b6121ff82611cbf565b9050602081019050919050565b600061221f61221a846121db565b611f13565b90508281526020810184848401111561223b5761223a611eae565b5b612246848285611f5f565b509392505050565b600082601f83011261226357612262611ea9565b5b813561227384826020860161220c565b91505092915050565b6000806000806080858703121561229657612295611bb4565b5b60006122a487828801611e01565b94505060206122b587828801611e01565b93505060406122c687828801611d4c565b925050606085013567ffffffffffffffff8111156122e7576122e6611bb9565b5b6122f38782880161224e565b91505092959194509250565b6000606082019050612314600083018661204d565b81810360208301526123268185611cd0565b9050612335604083018461204d565b949350505050565b6000806040838503121561235457612353611bb4565b5b600061236285828601611e01565b925050602061237385828601611e01565b9150509250929050565b7f4e487b7100000000000000000000000000000000000000000000000000000000600052602260045260246000fd5b600060028204905060018216806123c457607f821691505b6020821081036123d7576123d661237d565b5b50919050565b60006060820190506123f26000830186611dc0565b6123ff602083018561204d565b61240c6040830184611dc0565b949350505050565b60008190508160005260206000209050919050565b60006020601f8301049050919050565b600082821b905092915050565b6000600883026124767fffffffffffffffffffffffffffffffffffffffffffffffffffffffffffffffff82612439565b6124808683612439565b95508019841693508086168417925050509392505050565b6000819050919050565b60006124bd6124b86124b384611d2b565b612498565b611d2b565b9050919050565b6000819050919050565b6124d7836124a2565b6124eb6124e3826124c4565b848454612446565b825550505050565b600090565b6125006124f3565b61250b8184846124ce565b505050565b5b8181101561252f576125246000826124f8565b600181019050612511565b5050565b601f8211156125745761254581612414565b61254e84612429565b8101602085101561255d578190505b61257161256985612429565b830182612510565b50505b505050565b600082821c905092915050565b600061259760001984600802612579565b1980831691505092915050565b60006125b08383612586565b9150826002028217905092915050565b6125c982611c79565b67ffffffffffffffff8111156125e2576125e1611eb3565b5b6125ec82546123ac565b6125f7828285612533565b600060209050601f83116001811461262a5760008415612618578287015190505b61262285826125a4565b86555061268a565b601f19841661263886612414565b60005b828110156126605784890151825560018201915060208501945060208101905061263b565b8683101561267d5784890151612679601f891682612586565b8355505b6001600288020188555050505b505050505050565b7f4e487b7100000000000000000000000000000000000000000000000000000000600052601160045260246000fd5b60006126cc82611d2b565b91506126d783611d2b565b92508282019050808211156126ef576126ee612692565b5b92915050565b600060408201905061270a600083018561204d565b818103602083015261271c8184611cd0565b90509392505050565b7f546f6b656e20646f6573206e6f74206578697374000000000000000000000000600082015250565b600061275b601483611c84565b915061276682612725565b602082019050919050565b6000602082019050818103600083015261278a8161274e565b9050919050565b600081905092915050565b60006127a782611c79565b6127b18185612791565b93506127c1818560208601611c95565b80840191505092915050565b60006127d9828561279c565b91506127e5828461279c565b91508190509392505050565b600081519050919050565b600082825260208201905092915050565b6000612818826127f1565b61282281856127fc565b9350612832818560208601611c95565b61283b81611cbf565b840191505092915050565b600060808201905061285b6000830187611dc0565b6128686020830186611dc0565b612875604083018561204d565b8181036060830152612887818461280d565b905095945050505050565b6000815190506128a181611bea565b92915050565b6000602082840312156128bd576128bc611bb4565b5b60006128cb84828501612892565b91505092915050565b7f4e487b7100000000000000000000000000000000000000000000000000000000600052601260045260246000fd5b60006040820190506129186000830185611dc0565b612925602083018461204d565b939250505056fea26469706673582212204a4d6e8e77b1b09da6de09e9b6ff10ffdf9b3f6f7d0c04b94967d34279d93b7f64736f6c63430008140033",
  "linkReferences": {},
  "deployedLinkReferences": {}
}